:030000000200F605
:0C00F600787FE4F6D8FD75811902013D09
:0800030012025C1201F880FBFF
:10025C00E4F508C3E5089403748094805016741276
:10026C002508F8A60874122508F9E4FAFB120362B3
:0A027C00050880DF1203690201C3C8
:1001F8007B007A00790912032AEF4E60267B007A89
:100208000079097DC87C001203500511E5117F01B2
:1002180030E0081202867F010203041202B07F0157
:040228001202DA22C2
:10022C00EFFD7C00700843A10253A2FD801FED641A
:10023C00014C700843A14053A2BF8011ED64024CE5
:10024C00700843A18053A27F80037F00227F01228C
:0703620012002EFF02022C25
:10028600E4F515E515C39F501643D21A75D33B43C3
:10029600D10275D40075D60543D280051580E4E5F4
:0902A600156F60037F01227F0047
:0102AF00222C
:1002B000E4F516E516C39F501643D21A75D33B5387
:1002C000D1FD75D40075D60043D280051680E4E5D3
:0902D000166F60037F01227F001C
:0102D9002202
:1002DA00E4F517E517C39F501643D22A75D33B435B
:1002EA00D10475D40043D70543D280051780E4E5CD
:0902FA00176F60037F01227F00F1
:0103030022D7
:10030400E4FEEEC39F501543D22A75D33B53D1FB71
:1003140075D40075D70043D2800E80E6EE6F60037B
:050324007F01227F00B3
:0103290022B1
:1001C300758E07438901758A40758CA2C28CD2A9AA
:1001D300D28C438920758B10758D10C28ED2ABD211
:1001E3008EE4F5C9F5C875CB4475CA80C2CAD2ADD1
:0501F300D2CAD2AF22C8
:03000B000201826D
:10018200C0E0C0F0C083C082C0D075D000C000C043
:1001920001C002C003C004C005C006C007758A487A
:1001A200758CF412000ED007D006D005D004D0030F
:1001B200D002D001D000D0D0D082D083D0F0D0E015
:0101C200320A
:03001B0002001AC6
:01001A0032B3
:03002B00020017B9
:03001700C2CF3223
:04037400021800006B
:06036900E4F518F519226D
:09000E000519E51970020518221C
:05036F00AE18AF1922D9
:1003500012036FEE8FF01200AA900002EC8DF002F3
:0203600000C9D2
:09001E0012036FEE8FF00200AA3C
:10032A00900002120072FFAEF0120047FDC3E519F9
:10033A009DFDE51895F0FCC3ED9FEC9E7E00400301
:06034A007F01227F00226A
:10010200020003E493A3F8E493A34003F68001F210
:1001120008DFF48029E493A3F85407240CC8C333FE
:10012200C4540F4420C8834004F456800146F6DFCD
:10013200E4800B0102040810204080900374E47EE6
:10014200019360BCA3FF543F30E509541FFEE493C2
:10015200A360010ECF54C025E060A840B8E493A389
:10016200FAE493A3F8E493A3C8C582C8CAC583CAB4
:10017200F0A3C8C582C8CAC583CADFE9DEE780BE6C
:010378000084
:10002E00BB010689828A83E0225002E722BBFE02D0
:09003E00E32289828A83E4932203
:10004700BB010A89828A83E0F5F0A3E02250068784
:10005700F009E71922BBFE07E3F5F009E319228946
:0B006700828A83E493F5F07401932279
:10007200BB0110E58229F582E5833AF583E0F5F0CC
:10008200A3E0225009E92582F886F008E622BBFEA9
:100092000AE92582F8E2F5F008E222E5832AF583EF
:0800A200E993F5F0A3E99322B4
:1000AA00BB010A89828A83F0E5F0A3F0225006F7A1
:0F00BA0009A7F01922BBFE06F3E5F009F319229E
:1000C900F8BB0111E58229F582E5833AF583E8F069
:1000D900E5F0A3F0225009E92582C8F608A6F02226
:0D00E900BBFE09E92582C8F2E5F008F2220D
:00000001FF
